:020000000C945E
:100002002A000C9400000C9400000C9400000C9444
:1000120000000C9400000C9400000C9400000C945E
:1000220000000C9400000C9400000C9400000C944E
:1000320000000C9400000C9400000C9400000C943E
:1000420000000C9400000C9400000C9400000C942E
:100052000000F894EE27ECBBF1E0FBBFEBBFE5BF7D
:100062008DE0A2E0BB27ED938A95E9F780E098E066
:10007200A0E6ED930197E9F7EFE5EDBFE8E0EEBF0B
:10008200C0E6D2E00C944500E0E0EABBEBBBE7BB84
:10009200E8BBEFE0E4BBE0E0E5BBE7E0E1BBE0E0CA
:1000A200E2BBE3BFE2BFECBFEFBDEEBDEDBDECBD19
:1000B200E7BDE6BDEBBDEABDE9BDE8BDE2BDE5BD1C
:1000C200E4BDE3BDE9BFE5BFE4BFEAB9E0E8E8B9F2
:1000D200E0E0E0BFE6B9EDB9E6BF929AE5E0F0E014
:1000E2002F010024041405042CF423D0F2013197CB
:1000F2002F01F7CF9298919AE4E0F0E02F010024CB
:10010200041405042CF415D0F20131972F01F7CF16
:100112009198909AE9E0F0E02F010024041405047C
:100122002CF407D0F20131972F01F7CF9098D5CF59
:10013200FFCF45BAAAEFB0E00C949F00109639F0B9
:1001420080ED97E00197F1F7A8951197C9F7089507
:00000001FF
